:100C3C00505620505752206D573A00452E20572FB2
:060C4C0073712E6D3A00E9
:10050100E4F521F522F526F525F524F523F52AF55F
:1005110029F528F527F52EF52DF52CF52BF532F5D6
:1005210031F530F52F120A311207A98E218F22AC35
:1005310021AD22E41201AE7B337A33795378401234
:1005410000037B007AF0797F784512010C8F268EAB
:10055100258D248C23E4FFFEFD7C40AB26AA25A932
:1005610024A8231200038F2A8E298D288C27A80402
:10057100A905AA06AB07120003E4FBFA79C8784281
:1005810012010C7B647ADC798A783F1200038F2E8A
:100591008E2D8D2C8C2B7B4E7A77799378391201A5
:1005A1000C8F328E318D308C2FE4FFFE7D7A7C44AE
:1005B100AB2EAA2DA92CA82B1200031201E7AB0721
:1005C100AA06E4FD7F0C1203D6AF32AE31AD30ACDA
:1005D1002F1201E7AB07AA067D017F0C1203D67F1C
:0905E100647E00120BF0020529F2
:100A3100120975120C7AE4FDFF120C527BFF7A0C3D
:100A4100793C120AED7D01E4FF120C527BFF7A0C16
:100A51007947120AED53E8F043B38053B47FE4F5CC
:080A6100F643F60143E1012216
:100B3900E4FFFEC2EFD2EE30EFFDAFC37E00EFC49B
:100B4900F8540FC868FFEEC454F048FEADC2ED4238
:010B59000794
:010B5A002278
:1007A9007B10E4F536F535F534F533EBFF3395E099
:1007B900FED3EF9400EE64809480401D120B39E45F
:1007C900FCFDE5362FF536E5353EF535ED3534F5E5
:1007D90034EC3533F5331B80D2AF36AE35AD34AC9E
:0E07E9003378041203C38F368E358D348C3373
:0107F70022DF
:0803D6008F338D348A358B361C
:1003DE00E4F537D3E53694E7E5359403402AD3E5C3
:1003EE0036940FE5359427501FAE35AF367C277DFA
:1003FE00101202817E037FE8CFCDCFCECCCE12027B
:10040E0081EF2430F5378019D3E5369463E53594C2
:10041E00004039D3E53694E7E5359403502E753711
:10042E0020AD34AF33120C52AF37120B5BAE35AF7B
:10043E00367C037DE81202817E007F64CFCDCFCE65
:10044E00CCCE120281EF2430F5378028D3E53694D6
:10045E0009E5359400404AD3E5369463E5359400BA
:10046E00503F753720AD34AF33120C52AF37120BED
:10047E005B753720E53304FFAD34120C52AF3712E3
:10048E000B5BAE35AF367C007D641202817E007F41
:10049E000ACFCDCFCECCCE120281EF2430F53780ED
:1004AE0023753720AD34AF33120C52AF37120B5BBE
:1004BE00753720E53304FFAD34120C52AF37120BF3
:1004CE005B753720E5332402FFAD34120C52AF3783
:1004DE00120B5BAE35AF367C007D0A120281ED2425
:1004EE0030F537E5332403FFAD34120C52AF37121B
:0204FE000B5B96
:0105000022D8
:1009F80053B1BF53B2BF53B17F53B27F75985043C1
:100A08008920438780438E1053C4DFAB07AA06A909
:100A180005A8047F407E427D0F7C00120312EF047C
:090A2800F404F58DD28ED299225E
:1005EA008F0B8E0A8D098C0853B1BF53B2BF53B11A
:1005FA007F53B27F75985043878053C4F843C42011
:10060A00AB0BAA0AA909A8087F407E427D0F7C008D
:10061A00120312C374FF9FFF74FF9EFEE49DFDE464
:10062A009CFC78081203C38FC6AB0BAA0AA909A8B7
:10063A00087F407E427D0F7C00120312C374FF9F25
:09064A00FF8FC543C408D29922B8
:070C92003098FDAF99C298F4
:010C99002238
:080C9A00C2998F993099FD22E7
:100653008F0F8E0E8D0D8C0C53B1FB53B2FB53B326
:10066300BF53B4BF75F85075C40853C4DFAB0FAAAA
:100673000EA90DA80C7F407E427D0F7C0012031251
:10068300C374FF9FFF74FF9EFEE49DFDE49CFC7812
:10069300081203C38FC6AB0FAA0EA90DA80C7F4087
:1006A3007E427D0F7C00120312C374FF9FFF8FC530
:0406B30043C4082212
:070CA20030F8FDAF9AC2F823
:010CA9002228
:080CAA00C2F98F9A30F9FD2216
:100894008F138E128D118C10538EF7438901D28CD5
:1008A400E4FFFEFDFCAB13AA12A911A810C31203A6
:1008B400B26025758A7E758CFF308DFDC28DE5137F
:1008C40024FFF513E51234FFF512E51134FFF51199
:0B08D400E51034FFF51080C8C28C2234
:1008DF008F178E168D158C14538EF7438901D28C7A
:1008EF00E4FFFEFDFCAB17AA16A915A814C312034B
:1008FF00B26025758ACA758CFA308DFDC28DE517E9
:10090F0024FFF517E51634FFF516E51534FFF51539
:0B091F00E51434FFF51480C8C28C22E0
:10092A008F1B8E1A8D198C18538EEF438910D28E15
:10093A00E4FFFEFDFCAB1BAA1AA919A818C31203EF
:10094A00B26025758BEA758DCB308FFDC28FE51BA2
:10095A0024FFF51BE51A34FFF51AE51934FFF519DA
:0B096A00E51834FFF51880C8C28E228B
:1007F8008F1F8E1E8D1D8C1C53C9BF53C9DF43C963
:1008080010D2CAE4FFFEFDFCAB1FAA1EA91DA81C3E
:10081800C31203B2602575CC3075CDF830CFFDC258
:10082800CFE51F24FFF51FE51E34FFF51EE51D3437
:0E083800FFF51DE51C34FFF51C80C8C2CA2266
:100709008F418E408D3F8C3E75C40743C408E4FF7A
:10071900FEFDFCAB41AA40A93FA83EC31203B2604B
:100729002B75C52C75C6CFE5C45410641070F853E9
:10073900C4EFE54124FFF541E54034FFF540E53FCD
:1007490034FFF53FE53E34FFF53E80C253C4F7223E
:100759008F458E448D438C4275C40743C408E4FF1A
:10076900FEFDFCAB45AA44A943A842C31203B260EB
:100779002B75C5D875C6FFE5C45410641070F853BD
:10078900C4EFE54524FFF545E54434FFF544E54369
:1007990034FFF543E54234FFF54280C253C4F722E2
:10097500120C887F0A7E00120BF0754A0175490436
:10098500AF49120BB87F0A7E00120BF0E4FD7F33EE
:10099500120A69E4FD7F32120A69E4FD7F28120A12
:1009A50069E4FD7F0C120A69E4FD7F01120A69E41E
:0609B500FD7F06020A6945
:100B7D00434904AF49120BB87F017E00120BF053AD
:0E0B8D0049F9AF49120BB87F017E00020BF050
:100A69008F39ED1460080470085349F48003434931
:100A790001E54A600814700843490880035349F79F
:100A8900AF49120BB8AF39120AC67F017E00020BBB
:010A9900F06C
:020AC6008F3A65
:100AC800E53A54F053490F4249AF49120BB8120B9B
:100AD8007DE53A540FC454F053490F4249AF4912C7
:050AE8000BB8020B7DBC
:100AED008B338A348935AB330535E535AA3470023D
:100AFD00053414F9120268FF120B5BAB33AA34A94B
:070B0D003512026870E022BE
:100B5B00EFFD3395E0FCC3ED9420EC648094804072
:100B6B0010D3ED947FEC6480948050057D01120AC4
:020B7B006922ED
:0E0C7A00E4FD7F01120A69E4FD7F02020A69AF
:100C52008F38ED7006E53844808004E53844C0FFE3
:060C6200E4FD120A692204
:0A0C8800120C247F0A7E00020BF01C
:100C0C00E4F54D120B9B7F4F120846E4FF1206B71A
:070C1C008F4D120BD4AF4D08
:010C230022AE
:100BB8008F3B120B9B7F4E1208467FFF120B14AF20
:0C0BC8003B1208467FFF120B14020BD4F6
:100C240053B1F743B20853B1EF43B2107F0A7E00C9
:080C3400120BF0D283D28422DE
:100B9B0053B1F743B208D283D2847F287E00120C64
:0D0BAB0068C2837F287E00120C68C284227D
:100BD40053B1F743B208C283C2847F287E00120C4B
:0C0BE40068D283D2847F287E00020C6857
:0206B7008F466C
:1006B900754708E4F54843B10853B2F7D3E54794C1
:1006C90000748094804028C2847F147E00120C68D4
:1006D900D2847F147E00120C68E54825E0F5483085
:1006E900830205487F0A7E00120C68154780CDE514
:0F06F900460470047FFF8002E4FF120B14AF4829
:0107080022CE
:020846008F3CE5
:10084800753D0853B1F743B208C284D3E53D94001F
:10085800748094804035E53C5480C41313135401CC
:100868006004D2838002C283E53C25E0F53C7F1416
:100878007E00120C68D2847F147E00120C68C28439
:0B0888007F147E00120C68153D80C03C
:010893002242
:100B1400C28453B1F743B208EF047004C283800265
:100B2400D2837F147E00120C68D2847F147E00125C
:050B34000C68C28422E0
:1009BB00E4F54BF54C43B10853B2F7D2837F0AFEF3
:1009CB00120C68D2847F0A7E00120C6830831905E2
:1009DB004CE54C7002054BD394E8E54B6480948353
:0C09EB0040EA120BD47F0122C2847F007E
:0109F70022DD
:100C6800D3EF9400EE9400400800EF1F70F21E804E
:020C7800EF2269
:100BF000AD07AC06D3ED9400EC9400400EED1D70F3
:0C0C0000011C7FE87E03120C6880E922D2
:03000000020A9A57
:100A9A0075C7AA75C75575FD5A75C7AA75C755751D
:100AAA00FDA5787FE4F6D8FD9000007FFF7E03E481
:0C0ABA00F0A3DFFCDEFA75814D0205019F
:10000300EC4D6011E8497017ED33EC3304600DE4F7
:10001300FCFFFEFD22E933E8330470F802025312B9
:10002300021E58046009E4CC2481500628500902BA
:10003300025D28400302025AC0E0EB4A7044B980D3
:1000430006D0E0FB020249EF4E701CBD8008EBFFB7
:10005300EAFEE9FD80EBE98DF0A4FEE5F00200EC99
:10006300E9CDF9EAFEEBFFEF89F0A4FCE5F0CE89D8
:10007300F0A42EFFE435F0CD89F0A42DFEE435F095
:100083008067EF4E7005BD80D780C3EF8BF0A4ACC3
:10009300F0EE8BF0A42CFCE435F0F8EF8AF0A42CFE
:1000A300E5F038FCE433CB8DF0A42CFCE5F03BF811
:1000B300EE8AF0A42CFCE5F038F8E433CF89F0A401
:1000C3002CFCE5F038CF3400CE89F0A42FFFE5F007
:1000D3003EFEE433C98DF0A42EFEE5F039CD8AF05F
:1000E300A42FFFE5F03EFEE43DFD33D0E0FB5007D7
:1000F3000BBB000F02025DEC2CFCEF33FFEE33FE73
:06010300ED33FD020235A0
:1001090002025DEC5D046005E859047003020253C4
:1001190012021E580460F6EC4860F2EC7004FDFE11
:10012900FF22C860DB2481C85009C39860025006C9
:1001390002025A9850CAF582E9294B4A7005AB82E6
:1001490002024975F0007C1A7880C3EF9BEE9AEDA4
:1001590099400DC3EF9BFFEE9AFEED99FDE842F041
:10016900DC23ACF0D0E0FFD0E0FED0E0FDAB822094
:10017900E7101BEB60BAEC2CFCEF33FFEE33FEED1E
:1001890033FD020235E803F830E705C0F075F000E9
:10019900EF2FFFEE33FEED33FD40B830E7C280AA02
:1001A90075F020800E75F010800575F0087D007ED1
:1001B900007F003392D530D5031203A4EC334010ED
:1001C900EF33FFEE33FEED33FDEC33FCD5F0ED22DA
:0E01D900E5F0247EA2D513CC92E7CDCEFF2216
:1001E700EDD2E7CD33EC3392D524814006E4FFFE10
:1001F700FDFC22FCE4CFCECDCC24E0501174FF806F
:10020700EDC3CC13CCCD13CDCE13CECF13CF04700B
:07021700F030D5DE0203A464
:10021E00E9D2E7C933E833F892D5EDD2E7CD33EC26
:07022E0033FC5002B2D5229F
:10023500EC30E7100FBF000C0EBE00080DBD00042A
:100245000BEB6014A2D5EB13FCED92E7FD2274FFD6
:10025500FCFDFEFF22E480F8A2D574FF13FC7D802F
:03026500E480EF43
:10026800BB010689828A83E0225002E722BBFE0294
:09027800E32289828A83E49322C7
:10028100BC000BBE0029EF8DF084FFADF022E4CC61
:10029100F875F008EF2FFFEE33FEEC33FCEE9DEC2A
:1002A100984005FCEE9DFE0FD5F0E9E4CEFD22ED70
:1002B100F8F5F0EE8420D21CFEADF075F008EF2FBA
:1002C100FFED33FD4007985006D5F0F222C398FDAB
:0502D1000FD5F0EA2248
:1002D60075F008758200EF2FFFEE33FECD33CDCCDF
:1002E60033CCC58233C5829BED9AEC99E582984062
:1002F6000CF582EE9BFEED9AFDEC99FC0FD5F0D63F
:10030600E4CEFBE4CDFAE4CCF9A88222B800C1B968
:100316000059BA002DEC8BF084CFCECDFCE5F0CBA6
:10032600F97818EF2FFFEE33FEED33FDEC33FCEBDF
:1003360033FB10D703994004EB99FB0FD8E5E4F99A
:10034600FA227818EF2FFFEE33FEED33FDEC33FC87
:10035600C933C910D7059BE99A4007EC9BFCE99A7B
:10036600F90FD8E0E4C9FAE4CCFB2275F010EF2FC0
:10037600FFEE33FEED33FDCC33CCC833C810D707C0
:100386009BEC9AE899400AED9BFDEC9AFCE899F8FB
:0E0396000FD5F0DAE4CDFBE4CCFAE4C8F9228E
:0E03A400C3E49FFFE49EFEE49DFDE49CFC226A
:1003B200EB9FF5F0EA9E42F0E99D42F0E89C45F0A1
:0103C2002218
:1003C300E8600FECC313FCED13FDEE13FEEF13FF18
:0303D300D8F1223C
:00000001FF
