:1011BA004D415833313835352044656D6F00546AD6
:1011CA002F20433A0054612F20433A002020204325
:1011DA006865636B2053656E736F7221202020202F
:1011EA0000202020436865636B204A6E2D474E44D9
:1011FA00212020202000202020436865636B204A9C
:10120A006E2D5643432120202020002020202053E9
:10121A00797374656D204F6B61792E202020200030
:100F21009000001205F4000000009000041205F486
:100F3100000000009000081205F400000000E49099
:100F4100000CF01219AEE4FD7F0312172A7BFF7A21
:100F51001179BA1217C77D017F0212172A7BFF7A16
:100F61001179C81217C7E4FB7D017F0512197D7D38
:100F7100027F0212172A7BFF7A1179CF1217C7E479
:100F8100FB7D027F0512197D9000107401F0A3749E
:100F910000F0A37400F07B017A007904120C5890E0
:100FA100000CEFF024FE601724FE60222403702D54
:100FB1007D03E4FF12172A7BFF7A1179D6806C7DBD
:100FC10003E4FF12172A7BFF7A1179EB805D7D0321
:100FD100E4FF12172A7BFF7A127900804E900004F9
:100FE100E0FCA3E0FDA3E0FEA3E0FF90000F1205EB
:100FF100E89000137402F07D017F0B120A2D90001E
:1010010000E0FCA3E0FDA3E0FEA3E0FF90000F12CF
:1010110005E89000137402F0FD7F0B120A2D7D0389
:10102100E4FF12172A7BFF7A1279151217C77F90F6
:081031007E011218F0020F8984
:0C19AE001216171219A012157A02196BFC
:1016F10053B1BF53B2BF53B17F53B27F75985043BB
:101701008920438780438E1053C4DFAB07AA06A903
:1017110005A8047F407E427D0F7C001204E1EF04A6
:09172100F404F58DD28ED2992258
:101147009000361205E853B1BF53B2BF53B17F5376
:10115700B27F75985043878053C4F843C4209000EA
:1011670036E0F8A3E0F9A3E0FAA3E0FB7F407E4274
:101177007D0F7C001204E1C374FF9FFF74FF9EFE86
:10118700E49DFDE49CFC78081205A88FC690003604
:10119700E0F8A3E0F9A3E0FAA3E0FB7F407E427DFD
:1011A7000F7C001204E1C374FF9FFF8FC543C4087F
:0311B700D29922A8
:0719C4003098FDAF99C298B5
:0119CB0022F9
:0819CC00C2998F993099FD22A8
:10122A0090003A1205E853B1FB53B2FB53B3BF53D4
:10123A00B4BF75F85075C40853C4DF90003AE0F89B
:10124A00A3E0F9A3E0FAA3E0FB7F407E427D0F7C96
:10125A00001204E1C374FF9FFF74FF9EFEE49DFD2C
:10126A00E49CFC78081205A88FC690003AE0F8A31F
:10127A00E0F9A3E0FAA3E0FB7F407E427D0F7C0009
:0E128A001204E1C374FF9FFF8FC543C4082206
:0719D40030F8FDAF9AC2F8E4
:0119DB0022E9
:0819DC00C2F98F9A30F9FD22D7
:10146F0090003E1205E8538EF7438901D28CE4FFBA
:10147F00FEFDFC90003EE0F8A3E0F9A3E0FAA3E044
:10148F00FBC3120597602F758A7E758CFF308DFD1B
:10149F00C28D90003EE0FCA3E0FDA3E0FEA3E0249C
:1014AF00FFFFEE34FFFEED34FFFDEC34FFFC900048
:0914BF003E1205E880B8C28C223F
:1014C8009000421205E8538EF7438901D28CE4FF5D
:1014D800FEFDFC900042E0F8A3E0F9A3E0FAA3E0E7
:1014E800FBC3120597602F758ACA758CFA308DFD7B
:1014F800C28D900042E0FCA3E0FDA3E0FEA3E0243F
:10150800FFFFEE34FFFEED34FFFDEC34FFFC9000EE
:09151800421205E880B8C28C22E1
:101521009000461205E8538EEF438910D28EE4FFF6
:10153100FEFDFC900046E0F8A3E0F9A3E0FAA3E089
:10154100FBC3120597602F758BEA758DCB308FFD2C
:10155100C28F900046E0FCA3E0FDA3E0FEA3E024DF
:10156100FFFFEE34FFFEED34FFFDEC34FFFC900095
:09157100461205E880B8C28E2282
:1013B70090004A1205E853C9BF53C9DF43C910D289
:1013C700CAE4FFFEFDFC90004AE0F8A3E0F9A3E0C1
:1013D700FAA3E0FBC3120597602F75CC3075CDF8E3
:1013E70030CFFDC2CF90004AE0FCA3E0FDA3E0FEB2
:1013F700A3E024FFFFEE34FFFEED34FFFDEC34FFE6
:0C140700FC90004A1205E880B8C2CA221E
:1012FB0090004E1205E875C40743C408E4FFFEFDD9
:10130B00FC90004EE0F8A3E0F9A3E0FAA3E0FBC3E6
:10131B00120597603575C52C75C6CFE5C45410649E
:10132B001070F853C4EF90004EE0FCA3E0FDA3E077
:10133B00FEA3E024FFFFEE34FFFEED34FFFDEC34A3
:0E134B00FFFC90004E1205E880B253C4F7225A
:101359009000521205E875C40743C408E4FFFEFD76
:10136900FC900052E0F8A3E0F9A3E0FAA3E0FBC384
:10137900120597603575C5D875C6FFE5C454106464
:101389001070F853C4EF900052E0FCA3E0FDA3E015
:10139900FEA3E024FFFFEE34FFFEED34FFFDEC3445
:0E13A900FFFC9000521205E880B253C4F722F8
:10195900D3EF9400EE9400400800EF1F70F21E8050
:02196900EF226B
:1018F000AD07AC06D3ED9400EC9400400EED1D70E6
:0C190000011C7FE87E0312195980E922C7
:101617001219BA7F0A7E001218F090005A7401F06E
:101627009000597404F0FF1218917F0A7E00121877
:10163700F0E4FD7F331215CBE4FD7F321215CBE4C6
:10164700FD7F281215CBE4FD7F0C1215CBE4FD7F3F
:0B165700011215CBE4FD7F060215CB4D
:10184B00900059E04404FFF01218917F017E0012C2
:10185B0018F0900059E054F9FFF01218917F017EB7
:04186B00000218F06F
:1015CB00900028EFF0ED14600C047010900059E0BF
:1015DB0054F4F08007900059E04401F090005AE079
:1015EB00600C147010900059E04408F080079000D4
:1015FB0059E054F7F0900059E0FF12189190002831
:0C160B00E0FF1217947F017E000218F02F
:05179400900029EFF0B8
:10179900EF54F0FE900059E0540FF04EFFF012188C
:1017A9009112184B900029E0540FC454F0FE900098
:0E17B90059E0540FF04EFFF012189102184B39
:1017C700900025EBF0A3EAF0A3E9F0900025E0FBF9
:1017D700A3E475F00112048FA9F0FA120440FF1276
:1017E700186F900025E0FBA3E0FAA3E0F91204408C
:0317F70070D92284
:10186F00EFFD3395E0FCC3ED9420EC648094804051
:10187F0010D3ED947FEC6480948050057D01121598
:02188F00CB226A
:0E19A000E4FD7F011215CBE4FD7F020215CBA2
:10172A00900025EFF0ED24FE600F1460142402707F
:10173A0018900025E024408014900025E0241480AD
:10174A000C900025E024548004900025E04480FF9A
:06175A00E4FD1215CB2294
:0A19BA001219417F0A7E000218F0A6
:1018B300E490005DF01218D37F4F121413E4FF126B
:0F18C300129890005DEFF012190C90005DE0FF9D
:0118D20022F3
:1018910090002AEFF01218D37F4E1214137FFF121B
:1018A100182690002AE0FF1214137FFF1218260257
:0218B100190C10
:1019410053B1F743B20853B1EF43B2107F0A7E009F
:081951001218F0D283D28422A7
:1018D30053B1F743B208D283D2847F287E00121912
:0D18E30059C2837F287E00121959C2842249
:10190C0053B1F743B208C283C2847F287E001219F8
:0C191C0059D283D2847F287E0002195922
:05129800900056EFF08C
:10129D00A37408F0E4A3F043B10853B2F7900057DC
:1012AD00E0D3940074809480402EC2847F147E001D
:1012BD00121959D2847F147E00121959900058E0EA
:1012CD0025E0F0308303E004F07F0A7E0012195907
:1012DD00900057E014F080C5900056E00470047F34
:0D12ED00FF8002E4FF121826900058E0FF79
:0112FA0022D1
:0514130090002BEFF03A
:10141800A37408F053B1F743B208C28490002CE0DB
:10142800D3940074809480403D90002BE0FF54805A
:10143800C413131354016004D2838002C283EF25BE
:10144800E090002BF07F147E00121959D2847F148B
:101458007E00121959C2847F147E00121959900017
:061468002CE014F080B638
:01146E00225B
:10182600C28453B1F743B208EF047004C283800246
:10183600D2837F147E00121959D2847F147E00123F
:051846001959C28422C3
:10166200E490005BF0A3F043B10853B2F7D2837F5A
:101672000AFE121959D2847F0A7E00121959308348
:101682002590005CE004F0700690005BE004F0D36B
:1016920090005CE094E890005BE06480948340DE1C
:0A16A20012190C7F0122C2847F00A0
:0116AC00221B
:10176000EF24FE600C14600E2402701253F3FD800F
:101770000843F302800B43F30243F301800653F363
:10178000FD53F3FE43F40843F31053F3F753F3FB15
:0417900043F34022BD
:10198F00E4FE8FF5E5F430E7FBAEF553F47FAF06D9
:01199F002225
:10196B0053B3FD43B402E4FF1217607F647E0002A1
:02197B0018F062
:1010D10090001F7404F0A31205F400000000C291F7
:1010E10090001FE0FF3395E0FED3EF9400EE6480A3
:1010F10094804041A3E0FCA3E0FDA3E0FEA3E0FF58
:1011010078081205BB9000201205E8900020E0F855
:10111100A3E0F9A3E0FAA3E0FBE4FF12198FEB4F80
:10112100FFEAFEE9FDE8FC9000201205E890001FAF
:10113100E014F080ABD291900020E0FCA3E0FDA38D
:05114100E0FEA3E0FF49
:011146002286
:0B0C580090000DEBF0A3EAF0A3E9F020
:100C63009000131205F4000000009000171205F421
:100C73000000000090001B1205F400000000121099
:100C8300D19000171205E8900017E0FCA3E0FDE403
:100C9300FFFEED54FCFDEC547FFC9000131205E8BD
:100CA300900013E0FCA3E0FDA3E0FEA3E0FF7812B5
:100CB3001205A89000131205E8900013E0FCA3E0CE
:100CC300FDA3E0FEA3E0FFE412028BE4FBFA7980CC
:100CD300783E1200FB90001B1205E8900017E0FC21
:100CE300A3A3A3E4FFFEFDEC5480FCE4FBFAF9F8B4
:100CF300C3120597601790001BE0FCA3E0FDA3E07F
:100D0300FEA3E0FF12027A90001B1205E890001B7D
:100D1300E0FCA3E0FDA3E0FEA3E0FF90000DE0FBF9
:100D2300A3E0FAA3E0F91205CE900017A3A3E0FE17
:100D3300A3E054F0FFE4FDFC9000131205E89000DB
:100D430013E0FCA3E0FDA3E0FEA3E0FF780412059B
:100D5300A89000131205E8900013E0FCA3E0FDA3A4
:100D6300E0FEA3E0FFE412028BE4FBFA7980783D16
:100D73001200FB90001B1205E8900017A3A3E0FEEE
:100D8300A3E4FFEE5480FEE4FDFCFBFAF9F8C31282
:100D93000597601790001BE0FCA3E0FDA3E0FEA312
:100DA300E0FF12027A90001B1205E890001BE0FCA2
:100DB300A3E0FDA3E0FEA3E0FF900010E0FBA3E0AF
:100DC300FAA3E0F91205CE900017A3A3A3E05407FA
:010DD300FF20
:010DD40022FC
:1019280000060909060000002020202000202020B1
:09193800202020002E2020202098
:10157A00E490000DF0780E7C007D017BFF7A1979EA
:10158A0028FE7F0812041AE4FD7F401215CBE4906E
:10159A00000DF090000DE0FFC39408748094805011
:1015AA0019740E2FF582E43400F583E0FF7D0112F1
:1015BA0015CB90000DE004F080D9E4FD7F80021580
:0115CA00CB55
:10197D0090000DEBF012172A90000DE0FF7D010293
:02198D0015CB78
:0E0DD50090002DEFF0A3EDF0A3EAF0A3EBF0F9
:100DE30078317C007D017BFF7A1979307E007F05A5
:100DF30012041A90002FE0FEA3E0FFC3EE64809478
:100E0300805013A3742DF0C3E49FFFE49E90002F42
:100E1300F0A3EFF080069000317420F090002FE0F3
:100E2300FEA3E0FFD39463EE648094804057D3EF36
:100E330094E7EE64809483504C90002FE0FAA3E093
:100E4300FB7C007D64120459EF2430900032F07C67
:100E5300007D64AF03AE021204597E007F0ACFCD3A
:100E6300CFCECCCE120459EF2430A3F090002FE064
:100E7300FEA3E0FF7C007D0A120459ED24309000AC
:100E830034F0020F0D90002FE0FEA3E0FFD394098E
:100E9300EE648094804044D3EF9463EE6480948046
:100EA300503990002FE0FAA3E0FB7C007D6412042C
:100EB300597E007F0ACFCDCFCECCCE120459EF247A
:100EC30030900032F07C007D0AAF03AE0212045969
:100ED300ED2430A3F0A37420F0802F90002FE0FEC8
:100EE300A3E0FFC3EE64809480401FD3EF9409EE28
:100EF3006480948050147C007D0A120459ED2430E0
:100F0300900032F0A37420F0A3F090002DE0FFA333
:0E0F1300E0FD12172A7B017A0079310217C720
:08069200900018EFF0A3EDF059
:10069A00781E7C007D017BFF7A1979357E007F0701
:1006AA0012041A90001AE0FCA3E0FDA3E0FEA3E006
:1006BA00FFEC335016A3742DF090001AA3A3A3E005
:1006CA0012057390001A1205E8800690001E742025
:1006DA00F0E47F0F7E27FDFC90001AE0F8A3E0F912
:1006EA00A3E0FAA3E0FBD312058150030207C9E491
:1006FA007B107A27F9F890001AE0FCA3E0FDA3E04A
:10070A00FEA3E0FF1216ADEF243090001FF0E47B49
:10071A00107A27F9F890001AE0FCA3E0FDA3E0FEA6
:10072A00A3E0FF1216ADAC00AD01AE02AF03E47B4D
:10073A00E87A03F9F81216ADEF2430900020F0E4BD
:10074A007BE87A03F9F890001AE0FCA3E0FDA3E045
:10075A00FEA3E0FF1216ADAC00AD01AE02AF03E49A
:10076A007B64FAF9F81216ADEF2430900021F0E418
:10077A007B64FAF9F890001AE0FCA3E0FDA3E0FE1E
:10078A00A3E0FF1216ADAC00AD01AE02AF03E47BED
:10079A000AFAF9F81216ADEF2430900022F0E47B41
:1007AA000AFAF9F890001AE0FCA3E0FDA3E0FEA320
:1007BA00E0FF1216ADEB2430900023F0020A19E490
:1007CA007FE77E03FDFC90001AE0F8A3E0F9A3E0BE
:1007DA00FAA3E0FBD312058150030208B5E47F0FA8
:1007EA007E27FDFC90001AE0F8A3A3A3E0D312052C
:1007FA008140030208B5E47B107A27F9F890001AC1
:10080A00E0FCA3E0FDA3E0FEA3E0FF1216ADAC00FE
:10081A00AD01AE02AF03E47BE87A03F9F81216AD34
:10082A00EF243090001FF0E47BE87A03F9F8900097
:10083A001AE0FCA3E0FDA3E0FEA3E0FF1216ADACB4
:10084A0000AD01AE02AF03E47B64FAF9F81216AD0B
:10085A00EF2430900020F0E47B64FAF9F890001A53
:10086A00E0FCA3E0FDA3E0FEA3E0FF1216ADAC009E
:10087A00AD01AE02AF03E47B0AFAF9F81216ADEF46
:10088A002430900021F0E47B0AFAF9F890001AE08B
:10089A00FCA3E0FDA3E0FEA3E0FF1216ADEB2430BB
:1008AA00900022F0A37420F0020A19E47F63FEFD8F
:1008BA00FC90001AE0F8A3E0F9A3E0FAA3E0FBD366
:1008CA00120581500302096EE47FE77E03FDFC9066
:1008DA00001AE0F8A3A3A3E0D3120581400302099A
:1008EA006EE47BE87A03F9F890001AE0FCA3E0FDD5
:1008FA00A3E0FEA3E0FF1216ADAC00AD01AE02AF5D
:10090A0003E47B64FAF9F81216ADEF243090001F65
:10091A00F0E47B64FAF9F890001AE0FCA3E0FDA386
:10092A00E0FEA3E0FF1216ADAC00AD01AE02AF03CC
:10093A00E47B0AFAF9F81216ADEF2430900020F0A1
:10094A00E47B0AFAF9F890001AE0FCA3E0FDA3E0C0
:10095A00FEA3E0FF1216ADEB2430900021F0A37441
:10096A0020020A16E47F09FEFDFC90001AE0F8A3B3
:10097A00E0F9A3E0FAA3E0FBD31205814069E47F22
:10098A0063FEFDFC90001AE0F8A3A3A3E0D31205CE
:10099A00815054E47B64FAF9F890001AE0FCA3E071
:1009AA00FDA3E0FEA3E0FF1216ADAC00AD01AE025E
:1009BA00AF03E47B0AFAF9F81216ADEF243090007F
:1009CA001FF0E47B0AFAF9F890001AE0FCA3E0FDB4
:1009DA00A3E0FEA3E0FF1216ADEB2430900020F056
:1009EA00A37420F0A38025E47B0AFAF9F890001A90
:1009FA00E0FCA3E0FDA3E0FEA3E0FF1216ADEB24AA
:100A0A003090001FF0A37420F0A3F0A3F0A3F0909D
:100A1A000018E0FFA3E0FD12172A7B017A00791E75
:030A2A000217C7E9
:0E103900900018EFF0A3EDF0A3EAF0A3EBF0A7
:10104700781D7C007D017BFF7A19793C7E007F0546
:1010570012041A90001AE0FEA3E0FF7C007D6412E0
:101067000459EF243090001EF090001CE0FB7A003A
:10107700D3940174809480403D90001AE0FEA3E071
:10108700FF7C007D0A1204597C007D0A120459ED89
:10109700243090001FF0D3EB9401748094804016A5
:1010A70090001AE0FEA3E0FF7C007D0A120459EDD0
:1010B7002430900020F0900018E0FFA3E0FD121705
:0A10C7002A7B017A00791D0217C789
:080A2D0090000DEFF0A3EDF0C5
:100A35009000141205F40000000090000FE0FCA3E4
:100A4500E0FDA3E0FEA3E0FF1202C9900014120529
:100A5500E8900014E0FCA3E0FDA3E0FEA3E0FF9016
:100A6500001A1205E890000EE0FD90000DE0FF125F
:100A75000692900014E0FCA3E0FDA3E0FEA3E0FFD6
:100A8500EC12028BA804A905AA06AB0790000FE09B
:100A9500FCA3E0FDA3E0FEA3E0FF120006E4FBFAE1
:100AA500797A78441200FB1202C99000141205E805
:100AB500900014E0FCA3E0FDA3E0FEA3E0FFEC330F
:100AC5005010900014A3A3A3E01205739000141214
:100AD50005E8E4FFFEFDFC90000FE0F8A3E0F9A3B4
:100AE500E0FAA3E0FB120201502690000FE0FCA300
:100AF500E0FDA3E0FEA3E0FF12027A90000F1205CD
:100B0500E890000DE0FFA3E0FD12172A7F2D800D70
:100B150090000DE0FFA3E0FD12172A7F2012186F49
:100B25007F007E407D1C7C4690000FE0F8A3E0F935
:100B3500A3E0FAA3E0FB12020140247F007E507D72
:100B4500C37C4790000FE0F8A3E0F9A3E0FAA3E027
:100B5500FB120201500990000DE02406020C3AE454
:100B6500FFFE7D7A7C4490000FE0F8A3E0F9A3E056
:100B7500FAA3E0FB12020140247F007E407D1C7C2D
:100B85004690000FE0F8A3E0F9A3E0FAA3E0FB121A
:100B95000201500990000DE02405020C3AE4FFFE25
:100BA5007DC87C4290000FE0F8A3E0F9A3E0FAA32A
:100BB500E0FB1202014022E4FFFE7D7A7C449000B6
:100BC5000FE0F8A3E0F9A3E0FAA3E0FB120201505D
:100BD5000890000DE02404805CE4FFFE7D207C414C
:100BE50090000FE0F8A3E0F9A3E0FAA3E0FB1202FE
:100BF500014022E4FFFE7DC87C4290000FE0F8A38F
:100C0500E0F9A3E0FAA3E0FB120201500890000D01
:100C1500E024038020E4FFFE7D207C4190000FE06E
:100C2500F8A3E0F9A3E0FAA3E0FB12020150239038
:100C3500000DE02402FF900014A3A3E0FEA3E0FB57
:100C4500AA06900013E090001CF090000EE0FD1243
:020C5500103954
:010C5700227A
:030000000217FAEA
:1017FA0075C7AA75C75575FD5A75C7AA75C75575B0
:10180A00FDA5787FE4F6D8FD9000007FFF7E03E413
:0C181A00F0A3DFFCDEFA758120020F2134
:10000300020335E86480F8E933E83360110460F0F3
:10001300ED33EC337009E8FCE9FDEAFEEBFF220463
:1000230060DED3EB9FEA9EE99DE8C2E78CF0C2F75E
:1000330095F0400CE8CCF8E9CDF9EACEFAEBCFFB2A
:1000430012030085D0F05804700320D5B3E8047080
:10005300075002B2D502033F92D5EC0460F7E4CC1B
:10006300C0E0C398F8603B94186008400DD0E0FBF3
:10007300020317E4FBFAC9FC8028E830E406E4C96C
:10008300FBE4CAFCE830E305E4C9CACBFCE8540747
:100093006010F8C3E913F9EA13FAEB13FBEC13FC52
:1000A300D8F130F52FC3E49CFCEF9BFFEE9AFEEDF5
:1000B30099FDD0E0FBEF4E4D4C701222DB0302039F
:1000C3003CEC2CFCEF33FFEE33FEED33FDED30E77C
:1000D300EB020317EF2BFFEE3AFEED39FDD0E0FB09
:1000E30050130BBB000302033FED13FDEE13FEEFB2
:0800F30013FFEC13FC020317DC
:1000FB00EC4D6011E8497017ED33EC3304600DE4FF
:10010B00FCFFFEFD22E933E8330470F802033512DD
:10011B00030058046009E4CC2481500628500902DE
:10012B00033F28400302033CC0E0EB4A7044B98014
:10013B0006D0E0FB02032BEF4E701CBD8008EBFFDB
:10014B00EAFEE9FD80EBE98DF0A4FEE5F00201E4A7
:10015B00E9CDF9EAFEEBFFEF89F0A4FCE5F0CE89DF
:10016B00F0A42EFFE435F0CD89F0A42DFEE435F09C
:10017B008067EF4E7005BD80D780C3EF8BF0A4ACCA
:10018B00F0EE8BF0A42CFCE435F0F8EF8AF0A42C05
:10019B00E5F038FCE433CB8DF0A42CFCE5F03BF818
:1001AB00EE8AF0A42CFCE5F038F8E433CF89F0A408
:1001BB002CFCE5F038CF3400CE89F0A42FFFE5F00E
:1001CB003EFEE433C98DF0A42EFEE5F039CD8AF066
:1001DB00A42FFFE5F03EFEE43DFD33D0E0FB5007DE
:1001EB000BBB000F02033FEC2CFCEF33FFEE33FE97
:0601FB00ED33FD020317C5
:1002010074F8CC6480CCC86480C8F58204604FC3A4
:10021100EB9FF5F0EA9E42F0E99D42F0E89C45F043
:10022100603C501DE5825FFFE582D313CB5BCBF4CD
:100231002B5582FB50280ABA002409B900200880F6
:100241001DE5825BFBE582D313CF5FCFF4C3132F90
:100251005582FF50090EBE00050DBD00010CC3EB18
:100261009FF5F0EA9E42F0E99D42F0E89C45F0607E
:0902710007CC4820E701B3EC22A0
:10027A00ED33EC33600A047003BD8004ECB2E7FC92
:01028A002251
:10028B0075F020800E75F010800575F0087D007EEE
:10029B00007F003392D530D503120573EC33401039
:1002AB00EF33FFEE33FEED33FDEC33FCD5F0ED22F7
:0E02BB00E5F0247EA2D513CC92E7CDCEFF2233
:1002C900EDD2E7CD33EC3392D524814006E4FFFE2D
:1002D900FDFC22FCE4CFCECDCC24E0501174FF808C
:1002E900EDC3CC13CCCD13CDCE13CECF13CF047029
:0702F900F030D5DE020573B1
:10030000E9D2E7C933E833F892D5EDD2E7CD33EC43
:0703100033FC5002B2D522BC
:10031700EC30E7100FBF000C0EBE00080DBD000447
:100327000BEB6014A2D5EB13FCED92E7FD2274FFF3
:10033700FCFDFEFF22E480F8A2D574FF13FC7D804C
:03034700E480EF60
:10034A00E709F608DFFA8046E709F208DFFA803E95
:10035A0088828C83E709F0A3DFFA8032E309F60882
:10036A00DFFA8078E309F208DFFA807088828C83EA
:10037A00E309F0A3DFFA806489828A83E0A3F6089E
:10038A00DFFA805889828A83E0A3F208DFFA804C78
:10039A0080D280FA80C680D4806980F2803380104F
:1003AA0080A680EA809A80A880DA80E280CA8033B8
:1003BA0089828A83ECFAE493A3C8C582C8CCC58330
:1003CA00CCF0A3C8C582C8CCC583CCDFE9DEE78000
:1003DA000D89828A83E493A3F608DFF9ECFAA9F07F
:1003EA00EDFB2289828A83ECFAE0A3C8C582C8CCD5
:1003FA00C583CCF0A3C8C582C8CCC583CCDFEADEEE
:10040A00E880DB89828A83E493A3F208DFF980CC4F
:10041A0088F0EF60010E4E60C388F0ED2402B40448
:10042A000050B9F582EB2402B4040050AF232345EF
:06043A00822390039A7377
:10044000BB010689828A83E0225002E722BBFE02BA
:09045000E32289828A83E49322ED
:10045900C2D5EC30E709B2D5E4C39DFDE49CFCEEBE
:1004690030E715B2D5E4C39FFFE49EFE120625C30B
:10047900E49DFDE49CFC800312062530D507C3E406
:060489009FFFE49EFE222D
:10048F00A3F8E0C5F025F0F0E58215827002158320
:06049F00E0C838F0E8227D
:1004A50075F008758200EF2FFFEE33FECD33CDCC0E
:1004B50033CCC58233C5829BED9AEC99E582984091
:1004C5000CF582EE9BFEED9AFDEC99FC0FD5F0D66E
:1004D500E4CEFBE4CDFAE4CCF9A88222B800C1B998
:1004E5000059BA002DEC8BF084CFCECDFCE5F0CBD6
:1004F500F97818EF2FFFEE33FEED33FDEC33FCEB0F
:1005050033FB10D703994004EB99FB0FD8E5E4F9C9
:10051500FA227818EF2FFFEE33FEED33FDEC33FCB6
:10052500C933C910D7059BE99A4007EC9BFCE99AAA
:10053500F90FD8E0E4C9FAE4CCFB2275F010EF2FEF
:10054500FFEE33FEED33FDCC33CCC833C810D707EF
:100555009BEC9AE899400AED9BFDEC9AFCE899F82A
:0E0565000FD5F0DAE4CDFBE4CCFAE4C8F922BD
:1016AD00C2D5E830E70FB2D5E4C39BFBE49AFAE468
:1016BD0099F9E498F8EC30E717B2D51216E3120455
:1016CD00E1E4C39BFBE49AFAE499F9E498F880030A
:1016DD001204E130D50DE4C39FFFE49EFEE49DFDB1
:0416ED00E49CFC225B
:0E057300C3E49FFFE49EFEE49DFDE49CFC2299
:10058100EB9FF5F0EA9E42F0E99D42F0EC6480C8F1
:0605910064809845F02291
:10059700EB9FF5F0EA9E42F0E99D42F0E89C45F0BA
:0105A7002231
:1005A800E8600FECC313FCED13FDEE13FEEF13FF31
:0305B800D8F12255
:1005BB00E8600FEFC333FFEE33FEED33FDEC33FC9E
:0305CB00D8F12242
:1005CE00BB010789828A830205E85005E9F8020615
:0A05DE007ABBFE05E9F8020686224A
:0C05E800ECF0A3EDF0A3EEF0A3EFF02286
:1005F400A8828583F0D083D08212060B12060B12D8
:10060400060B12060BE473E493A3C583C5F0C583FC
:10061400C8C582C8F0A3C583C5F0C583C8C582C850
:0106240022B3
:10062500BC000BBE0029EF8DF084FFADF022E4CCB9
:10063500F875F008EF2FFFEE33FEEC33FCEE9DEC82
:10064500984005FCEE9DFE0FD5F0E9E4CEFD22EDC8
:10065500F8F5F0EE8420D21CFEADF075F008EF2F12
:10066500FFED33FD4007985006D5F0F222C398FD03
:050675000FD5F0EA22A0
:0C067A00ECF608EDF608EEF608EFF622AC
:0C068600ECF208EDF208EEF208EFF222B0
:00000001FF
