:10138500522E48202F20253A0054656D702F20439A
:071395003A002D2D2E2D0062
:100BE200E4F521F525F524F523F522F529F528F577
:100BF20027F52653B3DF43B420120EA712140312B3
:100C02001157E4FDFF1213B27BFF7A13798512129A
:100C1200937D01E4FF1213B27BFF7A13798E1212D5
:100C220093E4FB7D017F0512141112141D752D0032
:100C3200752E00752F227B007A007926120CA38F65
:100C420021E521702E85292F85282E85272D8526A1
:100C52002C753001E4FD7F0B12093D85252F85247B
:100C62002E85232D85222C7530017D017F0B1209E3
:100C72003D8020E4FD7F0C1213B27BFF7A1379973B
:100C82001212937D017F0C1213B27BFF7A137997B4
:100C9200121293A295B392957F907E011213368021
:010CA2008CC5
:1011D30053B1BF53B2BF53B17F53B27F75985043DE
:1011E3008920438780438E1053C4DFAB07AA06A927
:1011F30005A8047F407E427D0F7C001204F8EF04B3
:09120300F404F58DD28ED299227B
:100DDA008F148E138D128C1153B1BF53B2BF53B1FE
:100DEA007F53B27F75985043878053C4F843C42019
:100DFA00AB14AA13A912A8117F407E427D0F7C0072
:100E0A001204F8C374FF9FFF74FF9EFEE49DFDE485
:100E1A009CFC78081205BF8FC6AB14AA13A912A8A6
:100E2A00117F407E427D0F7C001204F8C374FF9F3D
:090E3A00FF8FC543C408D29922C0
:071427003098FDAF99C29857
:01142E00229B
:08142F00C2998F993099FD224A
:100E43008F188E178D168C1553B1FB53B2FB53B30A
:100E5300BF53B4BF75F85075C40853C4DFAB18AAA9
:100E630017A916A8157F407E427D0F7C001204F857
:100E7300C374FF9FFF74FF9EFEE49DFDE49CFC781A
:100E8300081205BF8FC6AB18AA17A916A8157F406D
:100E93007E427D0F7C001204F8C374FF9FFF8FC551
:040EA30043C408221A
:0714370030F8FDAF9AC2F886
:01143E00228B
:08143F00C2F98F9A30F9FD2279
:100FEC008F1C8E1B8D1A8C19538EF7438901D28C52
:100FFC00E4FFFEFDFCAB1CAA1BA91AA819C3120521
:10100C00AE6025758A7E758CFF308DFDC28DE51C1A
:10101C0024FFF51CE51B34FFF51BE51A34FFF51A0C
:0B102C00E51934FFF51980C8C28C22C2
:101037008F498E488D478C46538EF7438901D28C52
:10104700E4FFFEFDFCAB49AA48A947A846C3120521
:10105700AE6025758ACA758CFA308DFDC28DE5495B
:1010670024FFF549E54834FFF548E54734FFF547E0
:0B107700E54634FFF54680C8C28C221D
:101082008F4D8E4C8D4B8C4A538EEF438910D28EEE
:10109200E4FFFEFDFCAB4DAA4CA94BA84AC31205C6
:1010A200AE6025758BEA758DCB308FFDC28FE54D15
:1010B20024FFF54DE54C34FFF54CE54B34FFF54B81
:0B10C200E54A34FFF54A80C8C28E22C8
:100F9E008F518E508D4F8C4E53C9BF53C9DF43C9ED
:100FAE0010D2CAE4FFFEFDFCAB51AA50A94FA84EC9
:100FBE00C31205AE602575CC3075CDF830CFFDC2AD
:100FCE00CFE55124FFF551E55034FFF550E54F3490
:0E0FDE00FFF54FE54E34FFF54E80C8C2CA2223
:100EFE008F558E548D538C5275C40743C408E4FF2E
:100F0E00FEFDFCAB55AA54A953A852C31205AE6000
:100F1E002B75C52C75C6CFE5C45410641070F853EC
:100F2E00C4EFE55524FFF555E55434FFF554E5536C
:100F3E0034FFF553E55234FFF55280C253C4F72205
:100F4E008F598E588D578C5675C40743C408E4FFCD
:100F5E00FEFDFCAB59AA58A957A856C31205AE60A0
:100F6E002B75C5D875C6FFE5C45410641070F853C0
:100F7E00C4EFE55924FFF559E55834FFF558E55708
:100F8E0034FFF557E55634FFF55680C253C4F722A9
:0811970054F0FF531D0F421D2F
:10119F007E08AD1DC284EED39400748094804021EC
:1011AF00ED5480C41313135401FF530701EF700460
:1011BF00C2828002D282D283ED25E0FD1EC28380DF
:0311CF00D5D284F2
:0111D20022FA
:100EA7007F0A7E0012133653B1FB43B20453B1F7E6
:100EB70043B20853B1EF43B2107F0A7E00121336D4
:100EC700751D0812119F7F0A7E00121336E4FD7FFD
:100ED7003312139CE4FD7F3212139CE4FD7F28122A
:100EE700139CE4FD7F0C12139CE4FD7F0112139CFD
:070EF700E4FD7F0602139CDD
:10135200431D0812119F7F017E00121336531DF7A1
:0A13620012119F7F017E0002133676
:10139C00AC07ED147005431D048003531DFB1211A3
:0613AC009FAF040213C80C
:0213C8008F454F
:1013CA00E545121197121352E545540FC4121197AD
:0313DA00021352A9
:101293008B428A438944AB42AA43A9441204406067
:1012A300130544E5447002054314F9120440FF1288
:0512B30012B880E222E8
:1012B800EFFD3395E0FCC3ED9420EC64809480400E
:1012C80010D3ED947FEC6480948050057D01121357
:0212D8009C2256
:0E140300E4FD7F0112139CE4FD7F0202139CA6
:1013B2008F42ED7006E54244808004E54244C0FF5E
:0613C200E4FD12139C2261
:1013F100D3EF9400EE9400400800EF1F70F21E80BE
:02140100EF22D8
:10133600AD07AC06D3ED9400EC9400400EED1D70A5
:0C134600011C7FE87E031213F180E922F5
:1013DD0043B30843B40843B31043B410C2C075BE41
:0413ED0027D2C6221B
:1012FA007FE87E03D2C5C2C320C312D3EF9400EEA7
:0D130A00648094804007EF1F70EE1E80EBA2
:0113170022B3
:101318007FE87E03C2C3D2C430C412D3EF9400EE78
:0D132800648094804007EF1F70EE1E80EB84
:011335002295
:1010CD007DE87C03E4FED2C2C2C320C312D3ED94EB
:1010DD0000EC648094804007ED1D70EE1C80EBAE3B
:1010ED00BCEF6401701D7C037DE8C2C2C2C320C386
:1010FD0012D3ED9400EC648094804007ED1D70EEEA
:05110D001C80EBAF06A1
:0111120022BA
:1012DA007DE87C038FBCC2C5C2C320C312D3ED9480
:0F12EA0000EC648094804007ED1D70EE1C80EBDB
:0112F90022D2
:051447000000000000A0
:0A141D001213DD7F647E0002133617
:06120C008B368A37893899
:101212007F03E4FEEFFD3395E0FCD3ED94FFEC6435
:1012220080947F4016AB36AA37A938EF3395E08D0C
:0D12320082F5831204592EFE1F80D9AF06ED
:01123F00228C
:02126C008F36BB
:10126E00E4F5371212FA7FB81212DAAF361212DA2A
:10127E001212FA7FB91212DA7F011210CD8F3712C5
:04128E001318AF374B
:011292002239
:060CA3008B2A8A2B892C2C
:100CA90075300578317C007D007BFF7A1479477EA9
:100CB900007F0512041AAF30EF3395E0FED3EF94AD
:100CC90000EE64809480401674059530FF12126C12
:100CD900C3740595302431F8A607153080D87B00F8
:100CE9007A00793112120CEF65357068AC32120254
:100CF900957BCD7ACC79CC783D1200FBC004C00538
:100D0900C006C007AC31E4120295D003D002D0016D
:100D1900D00012000AAB2AAA2BA92C1205D2AC3496
:100D2900E41202957BCD7ACC79CC783D1200FBC0D8
:100D390004C005C006C007AC33E4120295D003D045
:100D490002D001D00012000AAB2DAA2EA92F12053C
:060D5900D27F00227F01A1
:010D5F002271
:10136C000006090906000000202020200020202073
:09137C00202020002E202020205A
:10115700E4F52A782B7C00FD7BFF7A13796CFE7F00
:101167000812041AE4FD7F4012139CE4F52AC3E534
:101177002A9408748094805010742B252AF8E6FF6F
:101187007D0112139C052A80E5E4FD7F8002139CF4
:0C1411008B2A1213B27D01AF2A02139C3B
:080ACD008F088D098A0A8B0BCA
:100AD500780C7C007D007BFF7A1379747E007F059E
:100AE50012041AC3E50A648094805010750C2DC356
:100AF500E4950BF50BE4950AF50A8003750C20D3F4
:100B0500E50B9463E50A64809480404CD3E50B942F
:100B1500E7E50A64809483503FAE0AAF0B7C007D05
:100B250064120486EF2430F50DAE0AAF0B7C007D10
:100B3500641204867E007F0ACFCDCFCECCCE1204C0
:100B450086EF2430F50EAE0AAF0B7C007D0A120449
:100B550086ED2430F50F8075D3E50B9409E50A641D
:100B6500809480403CD3E50B9463E50A64809480CF
:100B7500502FAE0AAF0B7C007D641204867E007F89
:100B85000ACFCDCFCECCCE120486EF2430F50DAEF4
:100B95000AAF0B7C007D0A120486ED2430F50E8029
:100BA50029C3E50A648094804023D3E50B9409E5C5
:100BB5000A648094805016AE0AAF0B7C007D0A1241
:100BC5000486ED2430F50D750E20750F20AD09AFA7
:0D0BD500081213B27B007A00790C02129313
:040665008F358D360A
:10066900783B7C007D007BFF7A1379797E007F07D8
:1006790012041AAF3AAE39AD38AC37EC33501075B5
:100689003B2D12058A8F3A8E398D388C3780037548
:100699003B20E47F0F7E27FDFCAB3AAA39A938A895
:1006A90037D3120598500302075BE47B107A27F9C8
:1006B900F8AF3AAE39AD38AC37121113EF2430F533
:1006C9003CE47B107A27F9F8AF3AAE39AD38AC374C
:1006D900121113AC00AD01AE02AF03E47BE87A035B
:1006E900F9F8121113EF2430F53DE47BE87A03F9A8
:1006F900F8AF3AAE39AD38AC37121113AC00AD01D1
:10070900AE02AF03E47B64FAF9F8121113EF243057
:10071900F53EE47B64FAF9F8AF3AAE39AD38AC3757
:10072900121113AC00AD01AE02AF03E47B0AFAF972
:10073900F8121113EF2430F53FE47B0AFAF9F8AF08
:100749003AAE39AD38AC37121113EB2430F540020B
:10075900092DE47FE77E03FDFCAB3AAA39A938A845
:1007690037D31205985003020816E47F0F7E27FD40
:10077900FCA837D31205984003020816E47B107AC7
:1007890027F9F8AF3AAE39AD38AC37121113AC00CE
:10079900AD01AE02AF03E47BE87A03F9F812111355
:1007A900EF2430F53CE47BE87A03F9F8AF3AAE3947
:1007B900AD38AC37121113AC00AD01AE02AF03E492
:1007C9007B64FAF9F8121113EF2430F53DE47B64E8
:1007D900FAF9F8AF3AAE39AD38AC37121113AC00AB
:1007E900AD01AE02AF03E47B0AFAF9F8121113EF77
:1007F9002430F53EE47B0AFAF9F8AF3AAE39AD3860
:10080900AC37121113EB2430F53F02092AE47F6358
:10081900FEFDFCAB3AAA39A938A837D3120598408E
:100829007AE47FE77E03FDFCA837D3120598506B65
:10083900E47BE87A03F9F8AF3AAE39AD38AC371250
:100849001113AC00AD01AE02AF03E47B64FAF9F811
:10085900121113EF2430F53CE47B64FAF9F8AF3A4E
:10086900AE39AD38AC37121113AC00AD01AE02AFE1
:1008790003E47B0AFAF9F8121113EF2430F53DE489
:100889007B0AFAF9F8AF3AAE39AD38AC3712111321
:10089900EB2430F53E753F2002092AE47F09FEFD6D
:1008A900FCAB3AAA39A938A837D31205984053E4C2
:1008B9007F63FEFDFCA837D31205985045E47B649D
:1008C900FAF9F8AF3AAE39AD38AC37121113AC00BA
:1008D900AD01AE02AF03E47B0AFAF9F8121113EF86
:1008E9002430F53CE47B0AFAF9F8AF3AAE39AD3871
:1008F900AC37121113EB2430F53D753E20753F20BE
:10090900801FE47B0AFAF9F8AF3AAE39AD38AC3753
:10091900121113EB2430F53C753D20753E20753FCF
:1009290020754020AD36AF351213B27B007A0079BD
:040939003B021293D8
:080D60008F358D368A378B3880
:100D6800783A7C007D007BFF7A1379807E007F05CE
:100D780012041AAE37AF387C007D64120486EF2463
:100D880030F53BE539FB7A00D394017480948040B8
:100D980031AE37AF387C007D0A1204867C007D0AAC
:100DA800120486ED2430F53CD3EB940174809480D2
:100DB8004010AE37AF387C007D0A120486ED24302F
:100DC800F53DAD36AF351213B27B007A00793A02A1
:020DD800129374
:04093D008F2A8D2B45
:10094100E4F534F533F532F531AF2FAE2EAD2DACE4
:100951002C1202C98F348E338D328C318F3A8E39FD
:100961008D388C37AD2BAF2A120665AF34AE33AD5F
:1009710032AC31EC12028BA804A905AA06AB07AF71
:100981002FAE2EAD2DAC2C120006E4FBFA797A784D
:10099100441200FB1202C98F348E338D328C31EC3C
:1009A10033500B12058A8F348E338D328C31E4FF34
:1009B100FEFDFCAB2FAA2EA92DA82C120201501E60
:1009C100AF2FAE2EAD2DAC2C12027A8F2F8E2E8D25
:1009D1002D8C2CAD2BAF2A1213B27F2D8009AD2B9C
:1009E100AF2A1213B27F201212B87F007E407D1C05
:1009F1007C46AB2FAA2EA92DA82C120201401C7FE8
:100A0100007E507DC37C47AB2FAA2EA92DA82C12A6
:100A110002015007E52A2406020ABFE4FFFE7D7A9F
:100A21007C44AB2FAA2EA92DA82C120201401B7FBA
:100A3100007E407D1C7C46AB2FAA2EA92DA82C122E
:100A410002015006E52A24058074E4FFFE7DC87C7E
:100A510042AB2FAA2EA92DA82C120201401AE4FFA5
:100A6100FE7D7A7C44AB2FAA2EA92DA82C1202015F
:100A71005006E52A24048046E4FFFE7D207C41AB3C
:100A81002FAA2EA92DA82C120201401AE4FFFE7DE7
:100A9100C87C42AB2FAA2EA92DA82C120201500608
:100AA100E52A24038018E4FFFE7D207C41AB2FAAB8
:100AB1002EA92DA82C1202015011E52A2402FFAA09
:0B0AC10033AB34853039AD2B120D60D3
:010ACC002207
:03000000021240A9
:1012400075C7AA75C75575FD5A75C7AA75C755756F
:10125000FDA5787FE4F6D8FD9000007FFF7E03E4D3
:0C126000F0A3DFFCDEFA758159020BE2FE
:10000300020335E86480F8E933E83360110460F0F3
:10001300ED33EC337009E8FCE9FDEAFEEBFF220463
:1000230060DED3EB9FEA9EE99DE8C2E78CF0C2F75E
:1000330095F0400CE8CCF8E9CDF9EACEFAEBCFFB2A
:1000430012030085D0F05804700320D5B3E8047080
:10005300075002B2D502033F92D5EC0460F7E4CC1B
:10006300C0E0C398F8603B94186008400DD0E0FBF3
:10007300020317E4FBFAC9FC8028E830E406E4C96C
:10008300FBE4CAFCE830E305E4C9CACBFCE8540747
:100093006010F8C3E913F9EA13FAEB13FBEC13FC52
:1000A300D8F130F52FC3E49CFCEF9BFFEE9AFEEDF5
:1000B30099FDD0E0FBEF4E4D4C701222DB0302039F
:1000C3003CEC2CFCEF33FFEE33FEED33FDED30E77C
:1000D300EB020317EF2BFFEE3AFEED39FDD0E0FB09
:1000E30050130BBB000302033FED13FDEE13FEEFB2
:0800F30013FFEC13FC020317DC
:1000FB00EC4D6011E8497017ED33EC3304600DE4FF
:10010B00FCFFFEFD22E933E8330470F802033512DD
:10011B00030058046009E4CC2481500628500902DE
:10012B00033F28400302033CC0E0EB4A7044B98014
:10013B0006D0E0FB02032BEF4E701CBD8008EBFFDB
:10014B00EAFEE9FD80EBE98DF0A4FEE5F00201E4A7
:10015B00E9CDF9EAFEEBFFEF89F0A4FCE5F0CE89DF
:10016B00F0A42EFFE435F0CD89F0A42DFEE435F09C
:10017B008067EF4E7005BD80D780C3EF8BF0A4ACCA
:10018B00F0EE8BF0A42CFCE435F0F8EF8AF0A42C05
:10019B00E5F038FCE433CB8DF0A42CFCE5F03BF818
:1001AB00EE8AF0A42CFCE5F038F8E433CF89F0A408
:1001BB002CFCE5F038CF3400CE89F0A42FFFE5F00E
:1001CB003EFEE433C98DF0A42EFEE5F039CD8AF066
:1001DB00A42FFFE5F03EFEE43DFD33D0E0FB5007DE
:1001EB000BBB000F02033FEC2CFCEF33FFEE33FE97
:0601FB00ED33FD020317C5
:1002010074F8CC6480CCC86480C8F58204604FC3A4
:10021100EB9FF5F0EA9E42F0E99D42F0E89C45F043
:10022100603C501DE5825FFFE582D313CB5BCBF4CD
:100231002B5582FB50280ABA002409B900200880F6
:100241001DE5825BFBE582D313CF5FCFF4C3132F90
:100251005582FF50090EBE00050DBD00010CC3EB18
:100261009FF5F0EA9E42F0E99D42F0E89C45F0607E
:0902710007CC4820E701B3EC22A0
:10027A00ED33EC33600A047003BD8004ECB2E7FC92
:01028A002251
:10028B0075F020800E75F010800575F0087D007EEE
:10029B00007F003392D530D50312058AEC33401022
:1002AB00EF33FFEE33FEED33FDEC33FCD5F0ED22F7
:0E02BB00E5F0247EA2D513CC92E7CDCEFF2233
:1002C900EDD2E7CD33EC3392D524814006E4FFFE2D
:1002D900FDFC22FCE4CFCECDCC24E0501174FF808C
:1002E900EDC3CC13CCCD13CDCE13CECF13CF047029
:0702F900F030D5DE02058A9A
:10030000E9D2E7C933E833F892D5EDD2E7CD33EC43
:0703100033FC5002B2D522BC
:10031700EC30E7100FBF000C0EBE00080DBD000447
:100327000BEB6014A2D5EB13FCED92E7FD2274FFF3
:10033700FCFDFEFF22E480F8A2D574FF13FC7D804C
:03034700E480EF60
:10034A00E709F608DFFA8046E709F208DFFA803E95
:10035A0088828C83E709F0A3DFFA8032E309F60882
:10036A00DFFA8078E309F208DFFA807088828C83EA
:10037A00E309F0A3DFFA806489828A83E0A3F6089E
:10038A00DFFA805889828A83E0A3F208DFFA804C78
:10039A0080D280FA80C680D4806980F2803380104F
:1003AA0080A680EA809A80A880DA80E280CA8033B8
:1003BA0089828A83ECFAE493A3C8C582C8CCC58330
:1003CA00CCF0A3C8C582C8CCC583CCDFE9DEE78000
:1003DA000D89828A83E493A3F608DFF9ECFAA9F07F
:1003EA00EDFB2289828A83ECFAE0A3C8C582C8CCD5
:1003FA00C583CCF0A3C8C582C8CCC583CCDFEADEEE
:10040A00E880DB89828A83E493A3F208DFF980CC4F
:10041A0088F0EF60010E4E60C388F0ED2402B40448
:10042A000050B9F582EB2402B4040050AF232345EF
:06043A00822390039A7377
:10044000BB010689828A83E0225002E722BBFE02BA
:09045000E32289828A83E49322ED
:10045900BB010CE58229F582E5833AF583E0225058
:1004690006E92582F8E622BBFE06E92582F8E222A2
:0D047900E58229F582E5833AF583E49322BC
:10048600C2D5EC30E709B2D5E4C39DFDE49CFCEE91
:1004960030E715B2D5E4C39FFFE49EFE1205ECC318
:1004A600E49DFDE49CFC80031205EC30D507C3E413
:0604B6009FFFE49EFE2200
:1004BC0075F008758200EF2FFFEE33FECD33CDCCF7
:1004CC0033CCC58233C5829BED9AEC99E58298407A
:1004DC000CF582EE9BFEED9AFDEC99FC0FD5F0D657
:1004EC00E4CEFBE4CDFAE4CCF9A88222B800C1B981
:1004FC000059BA002DEC8BF084CFCECDFCE5F0CBBF
:10050C00F97818EF2FFFEE33FEED33FDEC33FCEBF7
:10051C0033FB10D703994004EB99FB0FD8E5E4F9B2
:10052C00FA227818EF2FFFEE33FEED33FDEC33FC9F
:10053C00C933C910D7059BE99A4007EC9BFCE99A93
:10054C00F90FD8E0E4C9FAE4CCFB2275F010EF2FD8
:10055C00FFEE33FEED33FDCC33CCC833C810D707D8
:10056C009BEC9AE899400AED9BFDEC9AFCE899F813
:0E057C000FD5F0DAE4CDFBE4CCFAE4C8F922A6
:10111300C2D5E830E70FB2D5E4C39BFBE49AFAE407
:1011230099F9E498F8EC30E717B2D5121149120493
:10113300F8E4C39BFBE49AFAE499F9E498F8800392
:101143001204F830D50DE4C39FFFE49EFEE49DFD39
:04115300E49CFC22FA
:0E058A00C3E49FFFE49EFEE49DFDE49CFC2282
:10059800EB9FF5F0EA9E42F0E99D42F0EC6480C8DA
:0605A80064809845F0227A
:1005AE00EB9FF5F0EA9E42F0E99D42F0E89C45F0A3
:0105BE00221A
:1005BF00E8600FECC313FCED13FDEE13FEEF13FF1A
:0305CF00D8F1223E
:1005D200BB010789828A8302064D5005E9F80206AB
:0A05E20041BBFE05E9F802065922AC
:1005EC00BC000BBE0029EF8DF084FFADF022E4CCF3
:1005FC00F875F008EF2FFFEE33FEEC33FCEE9DECBC
:10060C00984005FCEE9DFE0FD5F0E9E4CEFD22ED01
:10061C00F8F5F0EE8420D21CFEADF075F008EF2F4B
:10062C00FFED33FD4007985006D5F0F222C398FD3C
:05063C000FD5F0EA22D9
:0C064100ECF608EDF608EEF608EFF622E5
:0C064D00ECF0A3EDF0A3EEF0A3EFF02220
:0C065900ECF208EDF208EEF208EFF222DD
:00000001FF
